{
  "contractName": "RandomnessBeacon",
  "abi": [
    {
      "inputs": [],
      "stateMutability": "nonpayable",
      "type": "constructor"
    },
    {
      "anonymous": false,
      "inputs": [
        {
          "indexed": false,
          "internalType": "address",
          "name": "sender",
          "type": "address"
        },
        {
          "indexed": false,
          "internalType": "bytes32",
          "name": "dataHash",
          "type": "bytes32"
        },
        {
          "indexed": false,
          "internalType": "uint64",
          "name": "blockNumber",
          "type": "uint64"
        }
      ],
      "name": "CommitHash",
      "type": "event"
    },
    {
      "anonymous": false,
      "inputs": [
        {
          "indexed": false,
          "internalType": "bytes32",
          "name": "randNumber",
          "type": "bytes32"
        }
      ],
      "name": "RandomNumber",
      "type": "event"
    },
    {
      "anonymous": false,
      "inputs": [
        {
          "indexed": false,
          "internalType": "address",
          "name": "sender",
          "type": "address"
        },
        {
          "indexed": false,
          "internalType": "bytes32",
          "name": "revealAns",
          "type": "bytes32"
        }
      ],
      "name": "RevealHash",
      "type": "event"
    },
    {
      "inputs": [
        {
          "internalType": "uint256",
          "name": "",
          "type": "uint256"
        }
      ],
      "name": "commitHistory",
      "outputs": [
        {
          "internalType": "address",
          "name": "sender",
          "type": "address"
        },
        {
          "internalType": "bytes32",
          "name": "commit",
          "type": "bytes32"
        },
        {
          "internalType": "uint64",
          "name": "blockNumber",
          "type": "uint64"
        },
        {
          "internalType": "bool",
          "name": "revealed",
          "type": "bool"
        }
      ],
      "stateMutability": "view",
      "type": "function",
      "constant": true
    },
    {
      "inputs": [
        {
          "internalType": "address",
          "name": "",
          "type": "address"
        }
      ],
      "name": "commits",
      "outputs": [
        {
          "internalType": "address",
          "name": "sender",
          "type": "address"
        },
        {
          "internalType": "bytes32",
          "name": "commit",
          "type": "bytes32"
        },
        {
          "internalType": "uint64",
          "name": "blockNumber",
          "type": "uint64"
        },
        {
          "internalType": "bool",
          "name": "revealed",
          "type": "bool"
        }
      ],
      "stateMutability": "view",
      "type": "function",
      "constant": true
    },
    {
      "inputs": [
        {
          "internalType": "uint256",
          "name": "",
          "type": "uint256"
        }
      ],
      "name": "revealHistory",
      "outputs": [
        {
          "internalType": "address",
          "name": "sender",
          "type": "address"
        },
        {
          "internalType": "uint64",
          "name": "blockNumber",
          "type": "uint64"
        },
        {
          "internalType": "bytes32",
          "name": "answer",
          "type": "bytes32"
        }
      ],
      "stateMutability": "view",
      "type": "function",
      "constant": true
    },
    {
      "inputs": [
        {
          "internalType": "bytes32",
          "name": "dataHash",
          "type": "bytes32"
        }
      ],
      "name": "commit",
      "outputs": [],
      "stateMutability": "payable",
      "type": "function",
      "payable": true
    },
    {
      "inputs": [
        {
          "internalType": "bytes32",
          "name": "answer",
          "type": "bytes32"
        },
        {
          "internalType": "bytes32",
          "name": "salt",
          "type": "bytes32"
        }
      ],
      "name": "reveal",
      "outputs": [],
      "stateMutability": "nonpayable",
      "type": "function"
    },
    {
      "inputs": [
        {
          "internalType": "bytes32",
          "name": "data",
          "type": "bytes32"
        }
      ],
      "name": "getHash",
      "outputs": [
        {
          "internalType": "bytes32",
          "name": "",
          "type": "bytes32"
        }
      ],
      "stateMutability": "view",
      "type": "function",
      "constant": true
    },
    {
      "inputs": [
        {
          "internalType": "bytes32",
          "name": "data",
          "type": "bytes32"
        },
        {
          "internalType": "bytes32",
          "name": "salt",
          "type": "bytes32"
        }
      ],
      "name": "getSaltedHash",
      "outputs": [
        {
          "internalType": "bytes32",
          "name": "",
          "type": "bytes32"
        }
      ],
      "stateMutability": "view",
      "type": "function",
      "constant": true
    },
    {
      "inputs": [],
      "name": "getCommits",
      "outputs": [
        {
          "components": [
            {
              "internalType": "address",
              "name": "sender",
              "type": "address"
            },
            {
              "internalType": "bytes32",
              "name": "commit",
              "type": "bytes32"
            },
            {
              "internalType": "uint64",
              "name": "blockNumber",
              "type": "uint64"
            },
            {
              "internalType": "bool",
              "name": "revealed",
              "type": "bool"
            }
          ],
          "internalType": "struct RandomnessBeacon.Commit[]",
          "name": "",
          "type": "tuple[]"
        }
      ],
      "stateMutability": "view",
      "type": "function",
      "constant": true
    },
    {
      "inputs": [],
      "name": "getReveals",
      "outputs": [
        {
          "components": [
            {
              "internalType": "address",
              "name": "sender",
              "type": "address"
            },
            {
              "internalType": "uint64",
              "name": "blockNumber",
              "type": "uint64"
            },
            {
              "internalType": "bytes32",
              "name": "answer",
              "type": "bytes32"
            }
          ],
          "internalType": "struct RandomnessBeacon.Reveal[]",
          "name": "",
          "type": "tuple[]"
        }
      ],
      "stateMutability": "view",
      "type": "function",
      "constant": true
    }
  ],
  "bytecode": "0x60806040526127106001556003600255600060035534801561002057600080fd5b5061194d806100306000396000f3fe6080604052600436106100865760003560e01c80638dddbf36116100595780638dddbf3614610173578063d9aa0f3b146101b0578063efcb4052146101db578063f14fcbc81461021a578063fc334e8c1461023657610086565b80632f1f75201461008b5780633cf5040a146100b65780633f7e5906146100f35780637b43a8e614610133575b600080fd5b34801561009757600080fd5b506100a061025f565b6040516100ad9190611128565b60405180910390f35b3480156100c257600080fd5b506100dd60048036038101906100d8919061117b565b61036b565b6040516100ea91906111b7565b60405180910390f35b3480156100ff57600080fd5b5061011a60048036038101906101159190611208565b61039d565b60405161012a9493929190611262565b60405180910390f35b34801561013f57600080fd5b5061015a600480360381019061015591906112d3565b61041e565b60405161016a9493929190611262565b60405180910390f35b34801561017f57600080fd5b5061019a60048036038101906101959190611300565b61048f565b6040516101a791906111b7565b60405180910390f35b3480156101bc57600080fd5b506101c56104c4565b6040516101d29190611431565b60405180910390f35b3480156101e757600080fd5b5061020260048036038101906101fd9190611208565b6105b5565b60405161021193929190611453565b60405180910390f35b610234600480360381019061022f919061117b565b610623565b005b34801561024257600080fd5b5061025d60048036038101906102589190611300565b610a18565b005b60606004805480602002602001604051908101604052809291908181526020016000905b8282101561036257838290600052602060002090600302016040518060800160405290816000820160009054906101000a900473ffffffffffffffffffffffffffffffffffffffff1673ffffffffffffffffffffffffffffffffffffffff1673ffffffffffffffffffffffffffffffffffffffff168152602001600182015481526020016002820160009054906101000a900467ffffffffffffffff1667ffffffffffffffff1667ffffffffffffffff1681526020016002820160089054906101000a900460ff16151515158152505081526020019060010190610283565b50505050905090565b600030826040516020016103809291906114f3565b604051602081830303815290604052805190602001209050919050565b600481815481106103ad57600080fd5b90600052602060002090600302016000915090508060000160009054906101000a900473ffffffffffffffffffffffffffffffffffffffff16908060010154908060020160009054906101000a900467ffffffffffffffff16908060020160089054906101000a900460ff16905084565b60056020528060005260406000206000915090508060000160009054906101000a900473ffffffffffffffffffffffffffffffffffffffff16908060010154908060020160009054906101000a900467ffffffffffffffff16908060020160089054906101000a900460ff16905084565b60003083836040516020016104a69392919061151f565b60405160208183030381529060405280519060200120905092915050565b60606006805480602002602001604051908101604052809291908181526020016000905b828210156105ac57838290600052602060002090600202016040518060600160405290816000820160009054906101000a900473ffffffffffffffffffffffffffffffffffffffff1673ffffffffffffffffffffffffffffffffffffffff1673ffffffffffffffffffffffffffffffffffffffff1681526020016000820160149054906101000a900467ffffffffffffffff1667ffffffffffffffff1667ffffffffffffffff168152602001600182015481525050815260200190600101906104e8565b50505050905090565b600681815481106105c557600080fd5b90600052602060002090600202016000915090508060000160009054906101000a900473ffffffffffffffffffffffffffffffffffffffff16908060000160149054906101000a900467ffffffffffffffff16908060010154905083565b6001543414610667576040517f08c379a000000000000000000000000000000000000000000000000000000000815260040161065e906115b9565b60405180910390fd5b600043905081600560003373ffffffffffffffffffffffffffffffffffffffff1673ffffffffffffffffffffffffffffffffffffffff1681526020019081526020016000206001018190555043600560003373ffffffffffffffffffffffffffffffffffffffff1673ffffffffffffffffffffffffffffffffffffffff16815260200190815260200160002060020160006101000a81548167ffffffffffffffff021916908367ffffffffffffffff1602179055506000600560003373ffffffffffffffffffffffffffffffffffffffff1673ffffffffffffffffffffffffffffffffffffffff16815260200190815260200160002060020160086101000a81548160ff021916908315150217905550600254600480549050036108305760005b60025481101561082e5760048054806107a4576107a36115d9565b5b6001900381819060005260206000209060030201600080820160006101000a81549073ffffffffffffffffffffffffffffffffffffffff021916905560018201600090556002820160006101000a81549067ffffffffffffffff02191690556002820160086101000a81549060ff021916905550509055808061082690611637565b915050610788565b505b600460405180608001604052803373ffffffffffffffffffffffffffffffffffffffff1681526020018481526020018367ffffffffffffffff16815260200160001515815250908060018154018082558091505060019003906000526020600020906003020160009091909190915060008201518160000160006101000a81548173ffffffffffffffffffffffffffffffffffffffff021916908373ffffffffffffffffffffffffffffffffffffffff1602179055506020820151816001015560408201518160020160006101000a81548167ffffffffffffffff021916908367ffffffffffffffff16021790555060608201518160020160086101000a81548160ff02191690831515021790555050507f3c1a1f8f38335b17f751c6da4ba7d1865f26b3997535176f5080de9fad89160333600560003373ffffffffffffffffffffffffffffffffffffffff1673ffffffffffffffffffffffffffffffffffffffff16815260200190815260200160002060010154600560003373ffffffffffffffffffffffffffffffffffffffff1673ffffffffffffffffffffffffffffffffffffffff16815260200190815260200160002060020160009054906101000a900467ffffffffffffffff16604051610a0c9392919061167f565b60405180910390a15050565b600560003373ffffffffffffffffffffffffffffffffffffffff1673ffffffffffffffffffffffffffffffffffffffff16815260200190815260200160002060020160089054906101000a900460ff1615610aa8576040517f08c379a0000000000000000000000000000000000000000000000000000000008152600401610a9f90611702565b60405180910390fd5b6001600560003373ffffffffffffffffffffffffffffffffffffffff1673ffffffffffffffffffffffffffffffffffffffff16815260200190815260200160002060020160086101000a81548160ff021916908315150217905550600560003373ffffffffffffffffffffffffffffffffffffffff1673ffffffffffffffffffffffffffffffffffffffff16815260200190815260200160002060010154610b50838361048f565b14610b90576040517f08c379a0000000000000000000000000000000000000000000000000000000008152600401610b8790611794565b60405180910390fd5b600560003373ffffffffffffffffffffffffffffffffffffffff1673ffffffffffffffffffffffffffffffffffffffff16815260200190815260200160002060020160009054906101000a900467ffffffffffffffff1667ffffffffffffffff164367ffffffffffffffff1611610c3c576040517f08c379a0000000000000000000000000000000000000000000000000000000008152600401610c3390611826565b60405180910390fd5b600a600560003373ffffffffffffffffffffffffffffffffffffffff1673ffffffffffffffffffffffffffffffffffffffff16815260200190815260200160002060020160009054906101000a900467ffffffffffffffff16610c9f9190611846565b67ffffffffffffffff164367ffffffffffffffff161115610cf5576040517f08c379a0000000000000000000000000000000000000000000000000000000008152600401610cec906118ce565b60405180910390fd5b81600080828254189250508190555060036000815480929190610d1790611637565b91905055503373ffffffffffffffffffffffffffffffffffffffff166108fc6001549081150290604051600060405180830381858888f19350505050158015610d64573d6000803e3d6000fd5b5060004390507f9bd42f43dc83efc4ec36c7fc3b65f03f929bbaa9e799e61e7500009315909d0f3384604051610d9b9291906118ee565b60405180910390a160025460068054905003610e485760005b600254811015610e46576006805480610dd057610dcf6115d9565b5b6001900381819060005260206000209060020201600080820160006101000a81549073ffffffffffffffffffffffffffffffffffffffff02191690556000820160146101000a81549067ffffffffffffffff02191690556001820160009055505090558080610e3e90611637565b915050610db4565b505b600660405180606001604052803373ffffffffffffffffffffffffffffffffffffffff1681526020018367ffffffffffffffff16815260200185815250908060018154018082558091505060019003906000526020600020906002020160009091909190915060008201518160000160006101000a81548173ffffffffffffffffffffffffffffffffffffffff021916908373ffffffffffffffffffffffffffffffffffffffff16021790555060208201518160000160146101000a81548167ffffffffffffffff021916908367ffffffffffffffff16021790555060408201518160010155505060025460035403610f87577f9978db1bc61a3b48fb0b7c16c8c0e22bbab5eb39aba9104839fd16b7522400a2600054604051610f6c91906111b7565b60405180910390a16000801b60008190555060006003819055505b505050565b600081519050919050565b600082825260208201905092915050565b6000819050602082019050919050565b600073ffffffffffffffffffffffffffffffffffffffff82169050919050565b6000610fe382610fb8565b9050919050565b610ff381610fd8565b82525050565b6000819050919050565b61100c81610ff9565b82525050565b600067ffffffffffffffff82169050919050565b61102f81611012565b82525050565b60008115159050919050565b61104a81611035565b82525050565b6080820160008201516110666000850182610fea565b5060208201516110796020850182611003565b50604082015161108c6040850182611026565b50606082015161109f6060850182611041565b50505050565b60006110b18383611050565b60808301905092915050565b6000602082019050919050565b60006110d582610f8c565b6110df8185610f97565b93506110ea83610fa8565b8060005b8381101561111b57815161110288826110a5565b975061110d836110bd565b9250506001810190506110ee565b5085935050505092915050565b6000602082019050818103600083015261114281846110ca565b905092915050565b600080fd5b61115881610ff9565b811461116357600080fd5b50565b6000813590506111758161114f565b92915050565b6000602082840312156111915761119061114a565b5b600061119f84828501611166565b91505092915050565b6111b181610ff9565b82525050565b60006020820190506111cc60008301846111a8565b92915050565b6000819050919050565b6111e5816111d2565b81146111f057600080fd5b50565b600081359050611202816111dc565b92915050565b60006020828403121561121e5761121d61114a565b5b600061122c848285016111f3565b91505092915050565b61123e81610fd8565b82525050565b61124d81611012565b82525050565b61125c81611035565b82525050565b60006080820190506112776000830187611235565b61128460208301866111a8565b6112916040830185611244565b61129e6060830184611253565b95945050505050565b6112b081610fd8565b81146112bb57600080fd5b50565b6000813590506112cd816112a7565b92915050565b6000602082840312156112e9576112e861114a565b5b60006112f7848285016112be565b91505092915050565b600080604083850312156113175761131661114a565b5b600061132585828601611166565b925050602061133685828601611166565b9150509250929050565b600081519050919050565b600082825260208201905092915050565b6000819050602082019050919050565b6060820160008201516113826000850182610fea565b5060208201516113956020850182611026565b5060408201516113a86040850182611003565b50505050565b60006113ba838361136c565b60608301905092915050565b6000602082019050919050565b60006113de82611340565b6113e8818561134b565b93506113f38361135c565b8060005b8381101561142457815161140b88826113ae565b9750611416836113c6565b9250506001810190506113f7565b5085935050505092915050565b6000602082019050818103600083015261144b81846113d3565b905092915050565b60006060820190506114686000830186611235565b6114756020830185611244565b61148260408301846111a8565b949350505050565b60008160601b9050919050565b60006114a28261148a565b9050919050565b60006114b482611497565b9050919050565b6114cc6114c782610fd8565b6114a9565b82525050565b6000819050919050565b6114ed6114e882610ff9565b6114d2565b82525050565b60006114ff82856114bb565b60148201915061150f82846114dc565b6020820191508190509392505050565b600061152b82866114bb565b60148201915061153b82856114dc565b60208201915061154b82846114dc565b602082019150819050949350505050565b600082825260208201905092915050565b7f496e636f7272656374207061796d656e7420616d6f756e740000000000000000600082015250565b60006115a360188361155c565b91506115ae8261156d565b602082019050919050565b600060208201905081810360008301526115d281611596565b9050919050565b7f4e487b7100000000000000000000000000000000000000000000000000000000600052603160045260246000fd5b7f4e487b7100000000000000000000000000000000000000000000000000000000600052601160045260246000fd5b6000611642826111d2565b91507fffffffffffffffffffffffffffffffffffffffffffffffffffffffffffffffff820361167457611673611608565b5b600182019050919050565b60006060820190506116946000830186611235565b6116a160208301856111a8565b6116ae6040830184611244565b949350505050565b7f416c72656164792072657665616c656400000000000000000000000000000000600082015250565b60006116ec60108361155c565b91506116f7826116b6565b602082019050919050565b6000602082019050818103600083015261171b816116df565b9050919050565b7f52657665616c6564206861736820646f6573206e6f74206d6174636820636f6d60008201527f6d69740000000000000000000000000000000000000000000000000000000000602082015250565b600061177e60238361155c565b915061178982611722565b604082019050919050565b600060208201905081810360008301526117ad81611771565b9050919050565b7f52657665616c20616e6420636f6d6d69742068617070656e6564206f6e20746860008201527f652073616d6520626c6f636b0000000000000000000000000000000000000000602082015250565b6000611810602c8361155c565b915061181b826117b4565b604082019050919050565b6000602082019050818103600083015261183f81611803565b9050919050565b600061185182611012565b915061185c83611012565b9250828201905067ffffffffffffffff81111561187c5761187b611608565b5b92915050565b7f52657665616c656420746f6f206c617465000000000000000000000000000000600082015250565b60006118b860118361155c565b91506118c382611882565b602082019050919050565b600060208201905081810360008301526118e7816118ab565b9050919050565b60006040820190506119036000830185611235565b61191060208301846111a8565b939250505056fea2646970667358221220448e81905ce92c6d6f6188c3fad44d041851558ddcb586ad0bb54ac3baf338da64736f6c63430008130033",
  "immutableReferences": {},
  "source": "// SPDX-License-Identifier: MIT\r\npragma solidity ^0.8.19;\r\n\r\ncontract RandomnessBeacon {\r\n\r\n    bytes32 private randNumber ;\r\n    uint256 private fixedAmount = 10000 wei;\r\n    uint256 private requiredParties = 3;\r\n    uint256 private revealedParties = 0;\r\n    \r\n    constructor() {\r\n         \r\n    }\r\n\r\n    struct Commit {\r\n        address sender;\r\n        bytes32 commit;\r\n        uint64 blockNumber;\r\n        bool revealed ;\r\n    }\r\n\r\n    Commit[] public commitHistory;\r\n    mapping(address => Commit) public commits;\r\n \r\n    struct Reveal {\r\n        address sender;\r\n        uint64 blockNumber;\r\n        bytes32 answer;\r\n    }\r\n\r\n    Reveal[] public revealHistory;\r\n\r\n    function commit(bytes32 dataHash ) external payable {\r\n        require(msg.value == fixedAmount, \"Incorrect payment amount\");\r\n        uint64 currentBlock = uint64(block.number);\r\n        commits[msg.sender].commit = dataHash;\r\n        commits[msg.sender].blockNumber = uint64(block.number);\r\n        commits[msg.sender].revealed = false;\r\n        // ****  //\r\n        if (commitHistory.length == requiredParties ) {\r\n            for (uint256 i = 0; i < requiredParties; i++) {\r\n                commitHistory.pop();\r\n            }\r\n        }\r\n        commitHistory.push(Commit({\r\n            sender: msg.sender,\r\n            commit: dataHash,\r\n            blockNumber: currentBlock,\r\n            revealed: false\r\n        }));\r\n        \r\n\r\n        // **** //\r\n        emit CommitHash(msg.sender, commits[msg.sender].commit, commits[msg.sender].blockNumber);\r\n    }\r\n\r\n    event CommitHash(address sender, bytes32 dataHash, uint64 blockNumber);\r\n\r\n    function reveal(bytes32 answer , bytes32 salt) external {\r\n        require(!commits[msg.sender].revealed, \"Already revealed\");\r\n        commits[msg.sender].revealed = true;\r\n\r\n\r\n        // emit DebugEvents(\"The Hash of reveal\", getHash(answer));        \r\n          \r\n        require(getSaltedHash(answer ,salt) == commits[msg.sender].commit, \"Revealed hash does not match commit\");\r\n        \r\n\r\n        require(uint64(block.number) > commits[msg.sender].blockNumber, \"Reveal and commit happened on the same block\");\r\n        require(uint64(block.number) <= commits[msg.sender].blockNumber + 10, \"Revealed too late\");\r\n\r\n        randNumber ^= answer;\r\n        \r\n        revealedParties++ ;\r\n\r\n        // Refund the fixed amount\r\n        payable(msg.sender).transfer(fixedAmount);\r\n        uint64 currentBlock = uint64(block.number);\r\n\r\n        emit RevealHash(msg.sender, answer);\r\n\r\n        // ****  //\r\n\r\n        if (revealHistory.length == requiredParties ) {\r\n            for (uint256 i = 0; i < requiredParties; i++) {\r\n                revealHistory.pop();\r\n            }\r\n        }\r\n\r\n        revealHistory.push(Reveal({\r\n            sender: msg.sender,\r\n            answer: answer,\r\n            blockNumber: currentBlock\r\n        }));\r\n\r\n        \r\n\r\n        // *****  //\r\n        // emit DebugEvents1(\"No of Perties revealed :\", revealedParties);\r\n        // emit DebugEvents(\"The random Number using revealed values :\", randNumber);\r\n        \r\n        if(revealedParties == requiredParties){\r\n            emit RandomNumber(randNumber);\r\n            // emit DebugEvents(\"The random Number inside IF statement :\", randNumber);\r\n            randNumber = 0;\r\n            revealedParties = 0;\r\n        }\r\n\r\n         \r\n        // emit DebugEvents(\"The random number :\", randNumber);\r\n\r\n    }\r\n\r\n\r\n    // event DebugEvents1(string message , uint256 number);\r\n    // event DebugEvents(string message , bytes32 Hash);\r\n    event RevealHash(address sender, bytes32 revealAns);\r\n    event RandomNumber(bytes32 randNumber);\r\n\r\n    function getHash(bytes32 data) public view returns (bytes32) {\r\n        return keccak256(abi.encodePacked(address(this), data));\r\n    }\r\n\r\n    function getSaltedHash(bytes32 data, bytes32 salt) public view returns (bytes32) {\r\n        return keccak256(abi.encodePacked(address(this), data, salt));\r\n    }\r\n\r\n    //  ****  //\r\n\r\n    function getCommits() external view returns (Commit[] memory) {\r\n        return commitHistory;\r\n    }\r\n\r\n    function getReveals() external view returns (Reveal[] memory) {\r\n        return revealHistory;\r\n    }\r\n\r\n    //  ****  //\r\n}\r\n",
  "sourcePath": "C:\\Users\\ugend\\Desktop\\Randomness_Beacon\\contracts\\RandomnessBeacon.sol",
  "compiler": {
    "name": "solc",
    "version": "0.8.19+commit.7dd6d404.Emscripten.clang"
  },
  "schemaVersion": "3.4.16",
  "updatedAt": "2023-11-27T05:02:29.503Z",
  "networkType": "ethereum",
  "devdoc": {
    "kind": "dev",
    "methods": {},
    "version": 1
  },
  "userdoc": {
    "kind": "user",
    "methods": {},
    "version": 1
  }
}